:020000040000FA
:020000000D28C9
:08000800A000030EA100210E6F
:100010008300A00E200E090008008316043085001E
:1000200014309F010430810000308B0083120930AE
:100030009F00073099000430A7000830A800053061
:10004000A3003330A4000130A5000130A6009F14A6
:100050009F1828281E08A2002402031C3528031913
:100060003A28A5033330A4023A2833302407A400E9
:10007000A50A2A282408A20222082302031C4428D5
:1000800003194928A603492805302307A300A60A17
:100090003C280310A50D4C28A70B49282508260746
:1000A000A900A90D03185928051085140000851012
:1000B0005E2805148514000085105E28A80B5128C1
:0200C0001B28FB
:02400E00A43FCD
:00000001FF
